{
  "_format": "hh-sol-artifact-1",
  "contractName": "FlashLoan",
  "sourceName": "contracts/FlashLoan.sol",
  "abi": [
    {
      "inputs": [
        {
          "internalType": "address",
          "name": "_address",
          "type": "address"
        }
      ],
      "name": "getBalanceOfToken",
      "outputs": [
        {
          "internalType": "uint256",
          "name": "",
          "type": "uint256"
        }
      ],
      "stateMutability": "view",
      "type": "function"
    },
    {
      "inputs": [
        {
          "internalType": "address",
          "name": "_tokenBorrow",
          "type": "address"
        },
        {
          "internalType": "uint256",
          "name": "_amount",
          "type": "uint256"
        }
      ],
      "name": "initiateArbitrage",
      "outputs": [],
      "stateMutability": "nonpayable",
      "type": "function"
    },
    {
      "inputs": [
        {
          "internalType": "address",
          "name": "_sender",
          "type": "address"
        },
        {
          "internalType": "uint256",
          "name": "_amount0",
          "type": "uint256"
        },
        {
          "internalType": "uint256",
          "name": "_amount1",
          "type": "uint256"
        },
        {
          "internalType": "bytes",
          "name": "_data",
          "type": "bytes"
        }
      ],
      "name": "uniswapV2Call",
      "outputs": [],
      "stateMutability": "nonpayable",
      "type": "function"
    }
  ],
  "bytecode": "0x608060405262015180420160005534801561001957600080fd5b50611f57806100296000396000f3fe608060405234801561001057600080fd5b50600436106100415760003560e01c806302f215281461004657806310d1e85c1461009457806383786f8c14610141575b600080fd5b6100926004803603604081101561005c57600080fd5b81019080803573ffffffffffffffffffffffffffffffffffffffff16906020019092919080359060200190929190505050610199565b005b61013f600480360360808110156100aa57600080fd5b81019080803573ffffffffffffffffffffffffffffffffffffffff1690602001909291908035906020019092919080359060200190929190803590602001906401000000008111156100fb57600080fd5b82018360208201111561010d57600080fd5b8035906020019184600183028401116401000000008311171561012f57600080fd5b909192939192939050505061093a565b005b6101836004803603602081101561015757600080fd5b81019080803573ffffffffffffffffffffffffffffffffffffffff16906020019092919050505061109c565b6040518082815260200191505060405180910390f35b61020c737a250d5630b4cf539739df2c5dacb4c659f2488d7fffffffffffffffffffffffffffffffffffffffffffffffffffffffffffffffff73c02aaa39b223fe8d0a0e5c4f27ead9083c756cc273ffffffffffffffffffffffffffffffffffffffff1661115d9092919063ffffffff16565b61027f737a250d5630b4cf539739df2c5dacb4c659f2488d7fffffffffffffffffffffffffffffffffffffffffffffffffffffffffffffffff73a0b86991c6218b36c1d19d4a2e9eb0ce3606eb4873ffffffffffffffffffffffffffffffffffffffff1661115d9092919063ffffffff16565b6102f2737a250d5630b4cf539739df2c5dacb4c659f2488d7fffffffffffffffffffffffffffffffffffffffffffffffffffffffffffffffff73514910771af9ca656af840dff83e8264ecf986ca73ffffffffffffffffffffffffffffffffffffffff1661115d9092919063ffffffff16565b61036573d9e1ce17f2641f24ae83637ab66a2cca9c378b9f7fffffffffffffffffffffffffffffffffffffffffffffffffffffffffffffffff73c02aaa39b223fe8d0a0e5c4f27ead9083c756cc273ffffffffffffffffffffffffffffffffffffffff1661115d9092919063ffffffff16565b6103d873d9e1ce17f2641f24ae83637ab66a2cca9c378b9f7fffffffffffffffffffffffffffffffffffffffffffffffffffffffffffffffff73a0b86991c6218b36c1d19d4a2e9eb0ce3606eb4873ffffffffffffffffffffffffffffffffffffffff1661115d9092919063ffffffff16565b61044b73d9e1ce17f2641f24ae83637ab66a2cca9c378b9f7fffffffffffffffffffffffffffffffffffffffffffffffffffffffffffffffff73514910771af9ca656af840dff83e8264ecf986ca73ffffffffffffffffffffffffffffffffffffffff1661115d9092919063ffffffff16565b6000735c69bee701ef814a2b6a3edd4b1652cb9cc5aa6f73ffffffffffffffffffffffffffffffffffffffff1663e6a439058473c02aaa39b223fe8d0a0e5c4f27ead9083c756cc26040518363ffffffff1660e01b8152600401808373ffffffffffffffffffffffffffffffffffffffff1673ffffffffffffffffffffffffffffffffffffffff1681526020018273ffffffffffffffffffffffffffffffffffffffff1673ffffffffffffffffffffffffffffffffffffffff1681526020019250505060206040518083038186803b15801561052657600080fd5b505afa15801561053a573d6000803e3d6000fd5b505050506040513d602081101561055057600080fd5b81019080805190602001909291905050509050600073ffffffffffffffffffffffffffffffffffffffff168173ffffffffffffffffffffffffffffffffffffffff161415610606576040517f08c379a00000000000000000000000000000000000000000000000000000000081526004018080602001828103825260128152602001807f506f6f6c20646f65736e2774206578697374000000000000000000000000000081525060200191505060405180910390fd5b60008173ffffffffffffffffffffffffffffffffffffffff16630dfe16816040518163ffffffff1660e01b815260040160206040518083038186803b15801561064e57600080fd5b505afa158015610662573d6000803e3d6000fd5b505050506040513d602081101561067857600080fd5b8101908080519060200190929190505050905060008273ffffffffffffffffffffffffffffffffffffffff1663d21220a76040518163ffffffff1660e01b815260040160206040518083038186803b1580156106d357600080fd5b505afa1580156106e7573d6000803e3d6000fd5b505050506040513d60208110156106fd57600080fd5b8101908080519060200190929190505050905060008273ffffffffffffffffffffffffffffffffffffffff168673ffffffffffffffffffffffffffffffffffffffff161461074c57600061074e565b845b905060008273ffffffffffffffffffffffffffffffffffffffff168773ffffffffffffffffffffffffffffffffffffffff161461078c57600061078e565b855b90506060878733604051602001808473ffffffffffffffffffffffffffffffffffffffff1673ffffffffffffffffffffffffffffffffffffffff1681526020018381526020018273ffffffffffffffffffffffffffffffffffffffff1673ffffffffffffffffffffffffffffffffffffffff168152602001935050505060405160208183030381529060405290508573ffffffffffffffffffffffffffffffffffffffff1663022c0d9f848430856040518563ffffffff1660e01b8152600401808581526020018481526020018373ffffffffffffffffffffffffffffffffffffffff1673ffffffffffffffffffffffffffffffffffffffff16815260200180602001828103825283818151815260200191508051906020019080838360005b838110156108c95780820151818401526020810190506108ae565b50505050905090810190601f1680156108f65780820380516001836020036101000a031916815260200191505b5095505050505050600060405180830381600087803b15801561091857600080fd5b505af115801561092c573d6000803e3d6000fd5b505050505050505050505050565b60003373ffffffffffffffffffffffffffffffffffffffff16630dfe16816040518163ffffffff1660e01b815260040160206040518083038186803b15801561098257600080fd5b505afa158015610996573d6000803e3d6000fd5b505050506040513d60208110156109ac57600080fd5b8101908080519060200190929190505050905060003373ffffffffffffffffffffffffffffffffffffffff1663d21220a76040518163ffffffff1660e01b815260040160206040518083038186803b158015610a0757600080fd5b505afa158015610a1b573d6000803e3d6000fd5b505050506040513d6020811015610a3157600080fd5b810190808051906020019092919050505090506000735c69bee701ef814a2b6a3edd4b1652cb9cc5aa6f73ffffffffffffffffffffffffffffffffffffffff1663e6a4390584846040518363ffffffff1660e01b8152600401808373ffffffffffffffffffffffffffffffffffffffff1673ffffffffffffffffffffffffffffffffffffffff1681526020018273ffffffffffffffffffffffffffffffffffffffff1673ffffffffffffffffffffffffffffffffffffffff1681526020019250505060206040518083038186803b158015610b0b57600080fd5b505afa158015610b1f573d6000803e3d6000fd5b505050506040513d6020811015610b3557600080fd5b810190808051906020019092919050505090508073ffffffffffffffffffffffffffffffffffffffff163373ffffffffffffffffffffffffffffffffffffffff1614610be9576040517f08c379a00000000000000000000000000000000000000000000000000000000081526004018080602001828103825260128152602001807f5061697220646f65736e2774206d61746368000000000000000000000000000081525060200191505060405180910390fd5b3073ffffffffffffffffffffffffffffffffffffffff168873ffffffffffffffffffffffffffffffffffffffff1614610c8a576040517f08c379a00000000000000000000000000000000000000000000000000000000081526004018080602001828103825260148152602001807f53656e64657220646f65736e2774206d6174636800000000000000000000000081525060200191505060405180910390fd5b600080600087876060811015610c9f57600080fd5b81019080803573ffffffffffffffffffffffffffffffffffffffff16906020019092919080359060200190929190803573ffffffffffffffffffffffffffffffffffffffff169060200190929190505050925092509250600060016103e56003850281610d0857fe5b04019050600081840190506000808d11610d22578b610d24565b8c5b90506000610d8573a0b86991c6218b36c1d19d4a2e9eb0ce3606eb4873514910771af9ca656af840dff83e8264ecf986ca84735c69bee701ef814a2b6a3edd4b1652cb9cc5aa6f737a250d5630b4cf539739df2c5dacb4c659f2488d611364565b9050610dc66040518060400160405280601081526020017f5472616465203120436f696e203a2d2000000000000000000000000000000000815250826119b0565b6000610e2573514910771af9ca656af840dff83e8264ecf986ca73a0b86991c6218b36c1d19d4a2e9eb0ce3606eb488473c0aee478e3658e2610c5f7a4a2e1777ce9e4f2ac73d9e1ce17f2641f24ae83637ab66a2cca9c378b9f611364565b9050610e666040518060400160405280601081526020017f5472616465203220436f696e203a2d2000000000000000000000000000000000815250826119b0565b6000610e728583611ab7565b905080610ee7576040517f08c379a000000000000000000000000000000000000000000000000000000000815260040180806020018281038252601b8152602001807f417262697472616765206973206e6f742050726f66697461626c65000000000081525060200191505060405180910390fd5b600073a0b86991c6218b36c1d19d4a2e9eb0ce3606eb4890508073ffffffffffffffffffffffffffffffffffffffff1663a9059cbb898886036040518363ffffffff1660e01b8152600401808373ffffffffffffffffffffffffffffffffffffffff1673ffffffffffffffffffffffffffffffffffffffff16815260200182815260200192505050602060405180830381600087803b158015610f8957600080fd5b505af1158015610f9d573d6000803e3d6000fd5b505050506040513d6020811015610fb357600080fd5b8101908080519060200190929190505050508973ffffffffffffffffffffffffffffffffffffffff1663a9059cbb8c886040518363ffffffff1660e01b8152600401808373ffffffffffffffffffffffffffffffffffffffff1673ffffffffffffffffffffffffffffffffffffffff16815260200182815260200192505050602060405180830381600087803b15801561104c57600080fd5b505af1158015611060573d6000803e3d6000fd5b505050506040513d602081101561107657600080fd5b810190808051906020019092919050505050505050505050505050505050505050505050565b60008173ffffffffffffffffffffffffffffffffffffffff166370a08231306040518263ffffffff1660e01b8152600401808273ffffffffffffffffffffffffffffffffffffffff1673ffffffffffffffffffffffffffffffffffffffff16815260200191505060206040518083038186803b15801561111b57600080fd5b505afa15801561112f573d6000803e3d6000fd5b505050506040513d602081101561114557600080fd5b81019080805190602001909291905050509050919050565b6000811480611257575060008373ffffffffffffffffffffffffffffffffffffffff1663dd62ed3e30856040518363ffffffff1660e01b8152600401808373ffffffffffffffffffffffffffffffffffffffff1673ffffffffffffffffffffffffffffffffffffffff1681526020018273ffffffffffffffffffffffffffffffffffffffff1673ffffffffffffffffffffffffffffffffffffffff1681526020019250505060206040518083038186803b15801561121a57600080fd5b505afa15801561122e573d6000803e3d6000fd5b505050506040513d602081101561124457600080fd5b8101908080519060200190929190505050145b6112ac576040517f08c379a0000000000000000000000000000000000000000000000000000000008152600401808060200182810382526036815260200180611eec6036913960400191505060405180910390fd5b61135f8363095ea7b360e01b8484604051602401808373ffffffffffffffffffffffffffffffffffffffff1673ffffffffffffffffffffffffffffffffffffffff16815260200182815260200192505050604051602081830303815290604052907bffffffffffffffffffffffffffffffffffffffffffffffffffffffff19166020820180517bffffffffffffffffffffffffffffffffffffffffffffffffffffffff8381831617835250505050611ac4565b505050565b6000808373ffffffffffffffffffffffffffffffffffffffff1663e6a4390588886040518363ffffffff1660e01b8152600401808373ffffffffffffffffffffffffffffffffffffffff1673ffffffffffffffffffffffffffffffffffffffff1681526020018273ffffffffffffffffffffffffffffffffffffffff1673ffffffffffffffffffffffffffffffffffffffff1681526020019250505060206040518083038186803b15801561141857600080fd5b505afa15801561142c573d6000803e3d6000fd5b505050506040513d602081101561144257600080fd5b81019080805190602001909291905050509050600073ffffffffffffffffffffffffffffffffffffffff168173ffffffffffffffffffffffffffffffffffffffff1614156114f8576040517f08c379a00000000000000000000000000000000000000000000000000000000081526004018080602001828103825260128152602001807f506f6f6c20646f65736e2774206d61746368000000000000000000000000000081525060200191505060405180910390fd5b6060600267ffffffffffffffff8111801561151257600080fd5b506040519080825280602002602001820160405280156115415781602001602082028036833780820191505090505b509050878160008151811061155257fe5b602002602001019073ffffffffffffffffffffffffffffffffffffffff16908173ffffffffffffffffffffffffffffffffffffffff1681525050868160018151811061159a57fe5b602002602001019073ffffffffffffffffffffffffffffffffffffffff16908173ffffffffffffffffffffffffffffffffffffffff168152505060008473ffffffffffffffffffffffffffffffffffffffff1663d06ca61f88846040518363ffffffff1660e01b81526004018083815260200180602001828103825283818151815260200191508051906020019060200280838360005b8381101561164c578082015181840152602081019050611631565b50505050905001935050505060006040518083038186803b15801561167057600080fd5b505afa158015611684573d6000803e3d6000fd5b505050506040513d6000823e3d601f19601f8201168201806040525060208110156116ae57600080fd5b81019080805160405193929190846401000000008211156116ce57600080fd5b838201915060208201858111156116e457600080fd5b825186602082028301116401000000008211171561170157600080fd5b8083526020830192505050908051906020019060200280838360005b8381101561173857808201518184015260208101905061171d565b5050505090500160405250505060018151811061175157fe5b6020026020010151905060008573ffffffffffffffffffffffffffffffffffffffff166338ed1739898486306000546040518663ffffffff1660e01b815260040180868152602001858152602001806020018473ffffffffffffffffffffffffffffffffffffffff1673ffffffffffffffffffffffffffffffffffffffff168152602001838152602001828103825285818151815260200191508051906020019060200280838360005b838110156118165780820151818401526020810190506117fb565b505050509050019650505050505050600060405180830381600087803b15801561183f57600080fd5b505af1158015611853573d6000803e3d6000fd5b505050506040513d6000823e3d601f19601f82011682018060405250602081101561187d57600080fd5b810190808051604051939291908464010000000082111561189d57600080fd5b838201915060208201858111156118b357600080fd5b82518660208202830111640100000000821117156118d057600080fd5b8083526020830192505050908051906020019060200280838360005b838110156119075780820151818401526020810190506118ec565b5050505090500160405250505060018151811061192057fe5b60200260200101519050600081116119a0576040517f08c379a00000000000000000000000000000000000000000000000000000000081526004018080602001828103825260118152602001807f5472616e73616374696f6e2041626f727400000000000000000000000000000081525060200191505060405180910390fd5b8094505050505095945050505050565b611ab382826040516024018080602001838152602001828103825284818151815260200191508051906020019080838360005b838110156119fe5780820151818401526020810190506119e3565b50505050905090810190601f168015611a2b5780820380516001836020036101000a031916815260200191505b5093505050506040516020818303038152906040527fb60e72cc000000000000000000000000000000000000000000000000000000007bffffffffffffffffffffffffffffffffffffffffffffffffffffffff19166020820180517bffffffffffffffffffffffffffffffffffffffffffffffffffffffff8381831617835250505050611bb3565b5050565b6000828211905092915050565b6060611b26826040518060400160405280602081526020017f5361666545524332303a206c6f772d6c6576656c2063616c6c206661696c65648152508573ffffffffffffffffffffffffffffffffffffffff16611bcd9092919063ffffffff16565b9050600081511115611bae57808060200190516020811015611b4757600080fd5b8101908080519060200190929190505050611bad576040517f08c379a000000000000000000000000000000000000000000000000000000000815260040180806020018281038252602a815260200180611ec2602a913960400191505060405180910390fd5b5b505050565b611bca81611bc2611be5611c06565b63ffffffff16565b50565b6060611bdc8484600085611c11565b90509392505050565b60006a636f6e736f6c652e6c6f679050600080835160208501845afa505050565b611e99819050919050565b606082471015611c6c576040517f08c379a0000000000000000000000000000000000000000000000000000000008152600401808060200182810382526026815260200180611e9c6026913960400191505060405180910390fd5b611c7585611dba565b611ce7576040517f08c379a000000000000000000000000000000000000000000000000000000000815260040180806020018281038252601d8152602001807f416464726573733a2063616c6c20746f206e6f6e2d636f6e747261637400000081525060200191505060405180910390fd5b600060608673ffffffffffffffffffffffffffffffffffffffff1685876040518082805190602001908083835b60208310611d375780518252602082019150602081019050602083039250611d14565b6001836020036101000a03801982511681845116808217855250505050505090500191505060006040518083038185875af1925050503d8060008114611d99576040519150601f19603f3d011682016040523d82523d6000602084013e611d9e565b606091505b5091509150611dae828286611dcd565b92505050949350505050565b600080823b905060008111915050919050565b60608315611ddd57829050611e92565b600083511115611df05782518084602001fd5b816040517f08c379a00000000000000000000000000000000000000000000000000000000081526004018080602001828103825283818151815260200191508051906020019080838360005b83811015611e57578082015181840152602081019050611e3c565b50505050905090810190601f168015611e845780820380516001836020036101000a031916815260200191505b509250505060405180910390fd5b9392505050565bfefe416464726573733a20696e73756666696369656e742062616c616e636520666f722063616c6c5361666545524332303a204552433230206f7065726174696f6e20646964206e6f7420737563636565645361666545524332303a20617070726f76652066726f6d206e6f6e2d7a65726f20746f206e6f6e2d7a65726f20616c6c6f77616e6365a264697066735822122074b9010de29f357d209fa935f2561ca08cc61216d5312e959cc6e7a63938b70d64736f6c63430006060033",
  "linkReferences": {},
  "deployedLinkReferences": {}
}