{
  "_format": "hh-sol-artifact-1",
  "contractName": "FlashLoan",
  "sourceName": "contracts/FlashLoan.sol",
  "abi": [
    {
      "inputs": [
        {
          "internalType": "address",
          "name": "_address",
          "type": "address"
        }
      ],
      "name": "getBalanceOfToken",
      "outputs": [
        {
          "internalType": "uint256",
          "name": "",
          "type": "uint256"
        }
      ],
      "stateMutability": "view",
      "type": "function"
    },
    {
      "inputs": [
        {
          "internalType": "address",
          "name": "_busdBorrow",
          "type": "address"
        },
        {
          "internalType": "uint256",
          "name": "_amount",
          "type": "uint256"
        }
      ],
      "name": "initiateArbitrage",
      "outputs": [],
      "stateMutability": "nonpayable",
      "type": "function"
    },
    {
      "inputs": [
        {
          "internalType": "address",
          "name": "_sender",
          "type": "address"
        },
        {
          "internalType": "uint256",
          "name": "_amount0",
          "type": "uint256"
        },
        {
          "internalType": "uint256",
          "name": "_amount1",
          "type": "uint256"
        },
        {
          "internalType": "bytes",
          "name": "_data",
          "type": "bytes"
        }
      ],
      "name": "pancakeCall",
      "outputs": [],
      "stateMutability": "nonpayable",
      "type": "function"
    }
  ],
  "bytecode": "0x608060405262015180420160005534801561001957600080fd5b50611d51806100296000396000f3fe608060405234801561001057600080fd5b50600436106100415760003560e01c806302f215281461004657806383786f8c1461009457806384800812146100ec575b600080fd5b6100926004803603604081101561005c57600080fd5b81019080803573ffffffffffffffffffffffffffffffffffffffff16906020019092919080359060200190929190505050610199565b005b6100d6600480360360208110156100aa57600080fd5b81019080803573ffffffffffffffffffffffffffffffffffffffff1690602001909291905050506107e1565b6040518082815260200191505060405180910390f35b6101976004803603608081101561010257600080fd5b81019080803573ffffffffffffffffffffffffffffffffffffffff16906020019092919080359060200190929190803590602001909291908035906020019064010000000081111561015357600080fd5b82018360208201111561016557600080fd5b8035906020019184600183028401116401000000008311171561018757600080fd5b90919293919293905050506108a2565b005b61020c7310ed43c718714eb63d5aa57b78b54704e256024e7fffffffffffffffffffffffffffffffffffffffffffffffffffffffffffffffff73e9e7cea3dedca5984780bafc599bd69add087d5673ffffffffffffffffffffffffffffffffffffffff16610f709092919063ffffffff16565b61027f7310ed43c718714eb63d5aa57b78b54704e256024e7fffffffffffffffffffffffffffffffffffffffffffffffffffffffffffffffff732c094f5a7d1146bb93850f629501eb749f6ed49173ffffffffffffffffffffffffffffffffffffffff16610f709092919063ffffffff16565b6102f27310ed43c718714eb63d5aa57b78b54704e256024e7fffffffffffffffffffffffffffffffffffffffffffffffffffffffffffffffff730e09fabb73bd3ade0a17ecc321fd13a19e81ce8273ffffffffffffffffffffffffffffffffffffffff16610f709092919063ffffffff16565b600073ca143ce32fe78f1f7019d7d551a6402fc5350c7373ffffffffffffffffffffffffffffffffffffffff1663e6a439058473bb4cdb9cbd36b01bd1cbaebf2de08d9173bc095c6040518363ffffffff1660e01b8152600401808373ffffffffffffffffffffffffffffffffffffffff1673ffffffffffffffffffffffffffffffffffffffff1681526020018273ffffffffffffffffffffffffffffffffffffffff1673ffffffffffffffffffffffffffffffffffffffff1681526020019250505060206040518083038186803b1580156103cd57600080fd5b505afa1580156103e1573d6000803e3d6000fd5b505050506040513d60208110156103f757600080fd5b81019080805190602001909291905050509050600073ffffffffffffffffffffffffffffffffffffffff168173ffffffffffffffffffffffffffffffffffffffff1614156104ad576040517f08c379a00000000000000000000000000000000000000000000000000000000081526004018080602001828103825260128152602001807f506f6f6c20646f65736e2774206578697374000000000000000000000000000081525060200191505060405180910390fd5b60008173ffffffffffffffffffffffffffffffffffffffff16630dfe16816040518163ffffffff1660e01b815260040160206040518083038186803b1580156104f557600080fd5b505afa158015610509573d6000803e3d6000fd5b505050506040513d602081101561051f57600080fd5b8101908080519060200190929190505050905060008273ffffffffffffffffffffffffffffffffffffffff1663d21220a76040518163ffffffff1660e01b815260040160206040518083038186803b15801561057a57600080fd5b505afa15801561058e573d6000803e3d6000fd5b505050506040513d60208110156105a457600080fd5b8101908080519060200190929190505050905060008273ffffffffffffffffffffffffffffffffffffffff168673ffffffffffffffffffffffffffffffffffffffff16146105f35760006105f5565b845b905060008273ffffffffffffffffffffffffffffffffffffffff168773ffffffffffffffffffffffffffffffffffffffff1614610633576000610635565b855b90506060878733604051602001808473ffffffffffffffffffffffffffffffffffffffff1673ffffffffffffffffffffffffffffffffffffffff1681526020018381526020018273ffffffffffffffffffffffffffffffffffffffff1673ffffffffffffffffffffffffffffffffffffffff168152602001935050505060405160208183030381529060405290508573ffffffffffffffffffffffffffffffffffffffff1663022c0d9f848430856040518563ffffffff1660e01b8152600401808581526020018481526020018373ffffffffffffffffffffffffffffffffffffffff1673ffffffffffffffffffffffffffffffffffffffff16815260200180602001828103825283818151815260200191508051906020019080838360005b83811015610770578082015181840152602081019050610755565b50505050905090810190601f16801561079d5780820380516001836020036101000a031916815260200191505b5095505050505050600060405180830381600087803b1580156107bf57600080fd5b505af11580156107d3573d6000803e3d6000fd5b505050505050505050505050565b60008173ffffffffffffffffffffffffffffffffffffffff166370a08231306040518263ffffffff1660e01b8152600401808273ffffffffffffffffffffffffffffffffffffffff1673ffffffffffffffffffffffffffffffffffffffff16815260200191505060206040518083038186803b15801561086057600080fd5b505afa158015610874573d6000803e3d6000fd5b505050506040513d602081101561088a57600080fd5b81019080805190602001909291905050509050919050565b60003373ffffffffffffffffffffffffffffffffffffffff16630dfe16816040518163ffffffff1660e01b815260040160206040518083038186803b1580156108ea57600080fd5b505afa1580156108fe573d6000803e3d6000fd5b505050506040513d602081101561091457600080fd5b8101908080519060200190929190505050905060003373ffffffffffffffffffffffffffffffffffffffff1663d21220a76040518163ffffffff1660e01b815260040160206040518083038186803b15801561096f57600080fd5b505afa158015610983573d6000803e3d6000fd5b505050506040513d602081101561099957600080fd5b81019080805190602001909291905050509050600073ca143ce32fe78f1f7019d7d551a6402fc5350c7373ffffffffffffffffffffffffffffffffffffffff1663e6a4390584846040518363ffffffff1660e01b8152600401808373ffffffffffffffffffffffffffffffffffffffff1673ffffffffffffffffffffffffffffffffffffffff1681526020018273ffffffffffffffffffffffffffffffffffffffff1673ffffffffffffffffffffffffffffffffffffffff1681526020019250505060206040518083038186803b158015610a7357600080fd5b505afa158015610a87573d6000803e3d6000fd5b505050506040513d6020811015610a9d57600080fd5b810190808051906020019092919050505090508073ffffffffffffffffffffffffffffffffffffffff163373ffffffffffffffffffffffffffffffffffffffff1614610b51576040517f08c379a00000000000000000000000000000000000000000000000000000000081526004018080602001828103825260128152602001807f5061697220646f65736e2774206d61746368000000000000000000000000000081525060200191505060405180910390fd5b3073ffffffffffffffffffffffffffffffffffffffff168873ffffffffffffffffffffffffffffffffffffffff1614610bf2576040517f08c379a00000000000000000000000000000000000000000000000000000000081526004018080602001828103825260148152602001807f53656e64657220646f65736e2774206d6174636800000000000000000000000081525060200191505060405180910390fd5b600080600087876060811015610c0757600080fd5b81019080803573ffffffffffffffffffffffffffffffffffffffff16906020019092919080359060200190929190803573ffffffffffffffffffffffffffffffffffffffff169060200190929190505050925092509250600060016103e56003850281610c7057fe5b04019050600081840190506000808d11610c8a578b610c8c565b8c5b90506000610cc373e9e7cea3dedca5984780bafc599bd69add087d56732c094f5a7d1146bb93850f629501eb749f6ed49184611177565b90506000610cfa732c094f5a7d1146bb93850f629501eb749f6ed491730e09fabb73bd3ade0a17ecc321fd13a19e81ce8284611177565b90506000610d31730e09fabb73bd3ade0a17ecc321fd13a19e81ce8273e9e7cea3dedca5984780bafc599bd69add087d5684611177565b9050610d3f848484846117fd565b6000610d4b86836118b1565b905080610dc0576040517f08c379a000000000000000000000000000000000000000000000000000000000815260040180806020018281038252601b8152602001807f417262697472616765206973206e6f742050726f66697461626c65000000000081525060200191505060405180910390fd5b73e9e7cea3dedca5984780bafc599bd69add087d5673ffffffffffffffffffffffffffffffffffffffff1663a9059cbb898885036040518363ffffffff1660e01b8152600401808373ffffffffffffffffffffffffffffffffffffffff1673ffffffffffffffffffffffffffffffffffffffff16815260200182815260200192505050602060405180830381600087803b158015610e5d57600080fd5b505af1158015610e71573d6000803e3d6000fd5b505050506040513d6020811015610e8757600080fd5b8101908080519060200190929190505050508973ffffffffffffffffffffffffffffffffffffffff1663a9059cbb8c886040518363ffffffff1660e01b8152600401808373ffffffffffffffffffffffffffffffffffffffff1673ffffffffffffffffffffffffffffffffffffffff16815260200182815260200192505050602060405180830381600087803b158015610f2057600080fd5b505af1158015610f34573d6000803e3d6000fd5b505050506040513d6020811015610f4a57600080fd5b810190808051906020019092919050505050505050505050505050505050505050505050565b600081148061106a575060008373ffffffffffffffffffffffffffffffffffffffff1663dd62ed3e30856040518363ffffffff1660e01b8152600401808373ffffffffffffffffffffffffffffffffffffffff1673ffffffffffffffffffffffffffffffffffffffff1681526020018273ffffffffffffffffffffffffffffffffffffffff1673ffffffffffffffffffffffffffffffffffffffff1681526020019250505060206040518083038186803b15801561102d57600080fd5b505afa158015611041573d6000803e3d6000fd5b505050506040513d602081101561105757600080fd5b8101908080519060200190929190505050145b6110bf576040517f08c379a0000000000000000000000000000000000000000000000000000000008152600401808060200182810382526036815260200180611ce66036913960400191505060405180910390fd5b6111728363095ea7b360e01b8484604051602401808373ffffffffffffffffffffffffffffffffffffffff1673ffffffffffffffffffffffffffffffffffffffff16815260200182815260200192505050604051602081830303815290604052907bffffffffffffffffffffffffffffffffffffffffffffffffffffffff19166020820180517bffffffffffffffffffffffffffffffffffffffffffffffffffffffff83818316178352505050506118be565b505050565b60008073ca143ce32fe78f1f7019d7d551a6402fc5350c7373ffffffffffffffffffffffffffffffffffffffff1663e6a4390586866040518363ffffffff1660e01b8152600401808373ffffffffffffffffffffffffffffffffffffffff1673ffffffffffffffffffffffffffffffffffffffff1681526020018273ffffffffffffffffffffffffffffffffffffffff1673ffffffffffffffffffffffffffffffffffffffff1681526020019250505060206040518083038186803b15801561123f57600080fd5b505afa158015611253573d6000803e3d6000fd5b505050506040513d602081101561126957600080fd5b81019080805190602001909291905050509050600073ffffffffffffffffffffffffffffffffffffffff168173ffffffffffffffffffffffffffffffffffffffff16141561131f576040517f08c379a00000000000000000000000000000000000000000000000000000000081526004018080602001828103825260128152602001807f506f6f6c20646f65736e2774206d61746368000000000000000000000000000081525060200191505060405180910390fd5b6060600267ffffffffffffffff8111801561133957600080fd5b506040519080825280602002602001820160405280156113685781602001602082028036833780820191505090505b509050858160008151811061137957fe5b602002602001019073ffffffffffffffffffffffffffffffffffffffff16908173ffffffffffffffffffffffffffffffffffffffff168152505084816001815181106113c157fe5b602002602001019073ffffffffffffffffffffffffffffffffffffffff16908173ffffffffffffffffffffffffffffffffffffffff168152505060007310ed43c718714eb63d5aa57b78b54704e256024e73ffffffffffffffffffffffffffffffffffffffff1663d06ca61f86846040518363ffffffff1660e01b81526004018083815260200180602001828103825283818151815260200191508051906020019060200280838360005b8381101561148757808201518184015260208101905061146c565b50505050905001935050505060006040518083038186803b1580156114ab57600080fd5b505afa1580156114bf573d6000803e3d6000fd5b505050506040513d6000823e3d601f19601f8201168201806040525060208110156114e957600080fd5b810190808051604051939291908464010000000082111561150957600080fd5b8382019150602082018581111561151f57600080fd5b825186602082028301116401000000008211171561153c57600080fd5b8083526020830192505050908051906020019060200280838360005b83811015611573578082015181840152602081019050611558565b5050505090500160405250505060018151811061158c57fe5b6020026020010151905060007310ed43c718714eb63d5aa57b78b54704e256024e73ffffffffffffffffffffffffffffffffffffffff166338ed1739878486306000546040518663ffffffff1660e01b815260040180868152602001858152602001806020018473ffffffffffffffffffffffffffffffffffffffff1673ffffffffffffffffffffffffffffffffffffffff168152602001838152602001828103825285818151815260200191508051906020019060200280838360005b8381101561166557808201518184015260208101905061164a565b505050509050019650505050505050600060405180830381600087803b15801561168e57600080fd5b505af11580156116a2573d6000803e3d6000fd5b505050506040513d6000823e3d601f19601f8201168201806040525060208110156116cc57600080fd5b81019080805160405193929190846401000000008211156116ec57600080fd5b8382019150602082018581111561170257600080fd5b825186602082028301116401000000008211171561171f57600080fd5b8083526020830192505050908051906020019060200280838360005b8381101561175657808201518184015260208101905061173b565b5050505090500160405250505060018151811061176f57fe5b60200260200101519050600081116117ef576040517f08c379a00000000000000000000000000000000000000000000000000000000081526004018080602001828103825260118152602001807f5472616e73616374696f6e2041626f727400000000000000000000000000000081525060200191505060405180910390fd5b809450505050509392505050565b6118ab84848484604051602401808581526020018481526020018381526020018281526020019450505050506040516020818303038152906040527f193fb800000000000000000000000000000000000000000000000000000000007bffffffffffffffffffffffffffffffffffffffffffffffffffffffff19166020820180517bffffffffffffffffffffffffffffffffffffffffffffffffffffffff83818316178352505050506119ad565b50505050565b6000828211905092915050565b6060611920826040518060400160405280602081526020017f5361666545524332303a206c6f772d6c6576656c2063616c6c206661696c65648152508573ffffffffffffffffffffffffffffffffffffffff166119c79092919063ffffffff16565b90506000815111156119a85780806020019051602081101561194157600080fd5b81019080805190602001909291905050506119a7576040517f08c379a000000000000000000000000000000000000000000000000000000000815260040180806020018281038252602a815260200180611cbc602a913960400191505060405180910390fd5b5b505050565b6119c4816119bc6119df611a00565b63ffffffff16565b50565b60606119d68484600085611a0b565b90509392505050565b60006a636f6e736f6c652e6c6f679050600080835160208501845afa505050565b611c93819050919050565b606082471015611a66576040517f08c379a0000000000000000000000000000000000000000000000000000000008152600401808060200182810382526026815260200180611c966026913960400191505060405180910390fd5b611a6f85611bb4565b611ae1576040517f08c379a000000000000000000000000000000000000000000000000000000000815260040180806020018281038252601d8152602001807f416464726573733a2063616c6c20746f206e6f6e2d636f6e747261637400000081525060200191505060405180910390fd5b600060608673ffffffffffffffffffffffffffffffffffffffff1685876040518082805190602001908083835b60208310611b315780518252602082019150602081019050602083039250611b0e565b6001836020036101000a03801982511681845116808217855250505050505090500191505060006040518083038185875af1925050503d8060008114611b93576040519150601f19603f3d011682016040523d82523d6000602084013e611b98565b606091505b5091509150611ba8828286611bc7565b92505050949350505050565b600080823b905060008111915050919050565b60608315611bd757829050611c8c565b600083511115611bea5782518084602001fd5b816040517f08c379a00000000000000000000000000000000000000000000000000000000081526004018080602001828103825283818151815260200191508051906020019080838360005b83811015611c51578082015181840152602081019050611c36565b50505050905090810190601f168015611c7e5780820380516001836020036101000a031916815260200191505b509250505060405180910390fd5b9392505050565bfefe416464726573733a20696e73756666696369656e742062616c616e636520666f722063616c6c5361666545524332303a204552433230206f7065726174696f6e20646964206e6f7420737563636565645361666545524332303a20617070726f76652066726f6d206e6f6e2d7a65726f20746f206e6f6e2d7a65726f20616c6c6f77616e6365a2646970667358221220d5da071bcbfa77755c5a92144b8ec95b9aeeb5ff92290b8128d8eb274428950864736f6c63430006060033",
  "linkReferences": {},
  "deployedLinkReferences": {}
}